{
  "_format": "hh-sol-artifact-1",
  "contractName": "TalSubdomainRegistrar",
  "sourceName": "contracts/subdomain-registrar/TalSubdomainRegistrar.sol",
  "abi": [
    {
      "inputs": [
        {
          "internalType": "contract ENS",
          "name": "ens",
          "type": "address"
        },
        {
          "internalType": "contract PublicResolver",
          "name": "resolver",
          "type": "address"
        },
        {
          "internalType": "contract DNSRegistrar",
          "name": "registrar",
          "type": "address"
        },
        {
          "internalType": "contract AggregatorV3Interface",
          "name": "priceFeedAddress",
          "type": "address"
        },
        {
          "internalType": "bytes32",
          "name": "node",
          "type": "bytes32"
        },
        {
          "internalType": "address",
          "name": "contractOwner",
          "type": "address"
        },
        {
          "internalType": "uint256",
          "name": "initialSubdomainFee",
          "type": "uint256"
        }
      ],
      "stateMutability": "nonpayable",
      "type": "constructor"
    },
    {
      "anonymous": false,
      "inputs": [
        {
          "indexed": true,
          "internalType": "address",
          "name": "owner",
          "type": "address"
        }
      ],
      "name": "DomainOwnershipTransferred",
      "type": "event"
    },
    {
      "anonymous": false,
      "inputs": [
        {
          "indexed": true,
          "internalType": "address",
          "name": "previousOwner",
          "type": "address"
        },
        {
          "indexed": true,
          "internalType": "address",
          "name": "newOwner",
          "type": "address"
        }
      ],
      "name": "OwnershipTransferred",
      "type": "event"
    },
    {
      "anonymous": false,
      "inputs": [
        {
          "indexed": false,
          "internalType": "uint256",
          "name": "newFee",
          "type": "uint256"
        }
      ],
      "name": "SubDomainFeeChanged",
      "type": "event"
    },
    {
      "anonymous": false,
      "inputs": [
        {
          "indexed": false,
          "internalType": "string",
          "name": "subDomainLabel",
          "type": "string"
        },
        {
          "indexed": false,
          "internalType": "uint256",
          "name": "price",
          "type": "uint256"
        },
        {
          "indexed": true,
          "internalType": "address",
          "name": "owner",
          "type": "address"
        }
      ],
      "name": "SubDomainRegistered",
      "type": "event"
    },
    {
      "inputs": [],
      "name": "ROOT_NODE",
      "outputs": [
        {
          "internalType": "bytes32",
          "name": "",
          "type": "bytes32"
        }
      ],
      "stateMutability": "view",
      "type": "function"
    },
    {
      "inputs": [
        {
          "internalType": "bytes",
          "name": "name",
          "type": "bytes"
        },
        {
          "components": [
            {
              "internalType": "bytes",
              "name": "rrset",
              "type": "bytes"
            },
            {
              "internalType": "bytes",
              "name": "sig",
              "type": "bytes"
            }
          ],
          "internalType": "struct DNSSEC.RRSetWithSignature[]",
          "name": "input",
          "type": "tuple[]"
        },
        {
          "internalType": "bytes",
          "name": "proof",
          "type": "bytes"
        }
      ],
      "name": "configureDnsOwnership",
      "outputs": [],
      "stateMutability": "nonpayable",
      "type": "function"
    },
    {
      "inputs": [],
      "name": "dnsRegistrar",
      "outputs": [
        {
          "internalType": "contract DNSRegistrar",
          "name": "",
          "type": "address"
        }
      ],
      "stateMutability": "view",
      "type": "function"
    },
    {
      "inputs": [],
      "name": "domainPriceInEth",
      "outputs": [
        {
          "internalType": "uint256",
          "name": "price",
          "type": "uint256"
        }
      ],
      "stateMutability": "view",
      "type": "function"
    },
    {
      "inputs": [],
      "name": "ensRegistry",
      "outputs": [
        {
          "internalType": "contract ENS",
          "name": "",
          "type": "address"
        }
      ],
      "stateMutability": "view",
      "type": "function"
    },
    {
      "inputs": [
        {
          "internalType": "string",
          "name": "subdomainLabel",
          "type": "string"
        },
        {
          "internalType": "address",
          "name": "subdomainNewOwner",
          "type": "address"
        }
      ],
      "name": "freeRegister",
      "outputs": [],
      "stateMutability": "nonpayable",
      "type": "function"
    },
    {
      "inputs": [],
      "name": "open",
      "outputs": [],
      "stateMutability": "nonpayable",
      "type": "function"
    },
    {
      "inputs": [],
      "name": "owner",
      "outputs": [
        {
          "internalType": "address",
          "name": "",
          "type": "address"
        }
      ],
      "stateMutability": "view",
      "type": "function"
    },
    {
      "inputs": [],
      "name": "publicResolver",
      "outputs": [
        {
          "internalType": "contract PublicResolver",
          "name": "",
          "type": "address"
        }
      ],
      "stateMutability": "view",
      "type": "function"
    },
    {
      "inputs": [
        {
          "internalType": "string",
          "name": "subdomainLabel",
          "type": "string"
        }
      ],
      "name": "register",
      "outputs": [],
      "stateMutability": "payable",
      "type": "function"
    },
    {
      "inputs": [],
      "name": "renounceOwnership",
      "outputs": [],
      "stateMutability": "nonpayable",
      "type": "function"
    },
    {
      "inputs": [
        {
          "internalType": "string",
          "name": "subdomainLabel",
          "type": "string"
        }
      ],
      "name": "revokeSubdomain",
      "outputs": [],
      "stateMutability": "nonpayable",
      "type": "function"
    },
    {
      "inputs": [
        {
          "internalType": "uint256",
          "name": "newSubdomainFee",
          "type": "uint256"
        }
      ],
      "name": "setSubdomainFee",
      "outputs": [],
      "stateMutability": "nonpayable",
      "type": "function"
    },
    {
      "inputs": [],
      "name": "stop",
      "outputs": [],
      "stateMutability": "nonpayable",
      "type": "function"
    },
    {
      "inputs": [],
      "name": "stopped",
      "outputs": [
        {
          "internalType": "bool",
          "name": "",
          "type": "bool"
        }
      ],
      "stateMutability": "view",
      "type": "function"
    },
    {
      "inputs": [
        {
          "internalType": "string",
          "name": "subdomainLabel",
          "type": "string"
        }
      ],
      "name": "subDomainOwner",
      "outputs": [
        {
          "internalType": "address",
          "name": "subDomainOwnerAddress",
          "type": "address"
        }
      ],
      "stateMutability": "view",
      "type": "function"
    },
    {
      "inputs": [],
      "name": "subdomainFee",
      "outputs": [
        {
          "internalType": "uint256",
          "name": "",
          "type": "uint256"
        }
      ],
      "stateMutability": "view",
      "type": "function"
    },
    {
      "inputs": [
        {
          "internalType": "address",
          "name": "newDomainOwner",
          "type": "address"
        }
      ],
      "name": "transferDomainOwnership",
      "outputs": [],
      "stateMutability": "nonpayable",
      "type": "function"
    },
    {
      "inputs": [
        {
          "internalType": "address",
          "name": "newOwner",
          "type": "address"
        }
      ],
      "name": "transferOwnership",
      "outputs": [],
      "stateMutability": "nonpayable",
      "type": "function"
    }
  ],
  "bytecode": "0x60a06040526006805460ff191690553480156200001b57600080fd5b5060405162001b1e38038062001b1e8339810160408190526200003e91620001e6565b6200004933620000b5565b600180546001600160a01b03808a166001600160a01b0319928316179092556002805489841690831617905560038054888416908316179055608085905260058390556004805492871692909116919091179055620000a88262000105565b505050505050506200028f565b600080546001600160a01b038381166001600160a01b0319831681178455604051919092169283917f8be0079c531659141344cd1fd0a4f28419497f9722a3daafe3b4186f6b6457e09190a35050565b6200010f62000188565b6001600160a01b0381166200017a5760405162461bcd60e51b815260206004820152602660248201527f4f776e61626c653a206e6577206f776e657220697320746865207a65726f206160448201526564647265737360d01b60648201526084015b60405180910390fd5b6200018581620000b5565b50565b6000546001600160a01b03163314620001e45760405162461bcd60e51b815260206004820181905260248201527f4f776e61626c653a2063616c6c6572206973206e6f7420746865206f776e6572604482015260640162000171565b565b600080600080600080600060e0888a0312156200020257600080fd5b87516200020f8162000279565b6020890151909750620002228162000279565b6040890151909650620002358162000279565b6060890151909550620002488162000279565b608089015160a08a01519195509350620002628162000279565b8092505060c0880151905092959891949750929550565b6001600160a01b03811681146200018557600080fd5b60805161183b620002e3600039600081816101b20152818161045c015281816106890152818161077301528181610a7601528181610ce901528181610e1701528181610f8e01526110f0015261183b6000f3fe6080604052600436106101445760003560e01c8063943e60aa116100c0578063f2800a1411610074578063f2fde38b11610059578063f2fde38b1461035a578063f82561211461037a578063fcfff16f1461039a57600080fd5b8063f2800a1414610327578063f2c298be1461034757600080fd5b8063ab517d13116100a5578063ab517d13146102dc578063be8ee975146102fc578063e37ce2b11461031157600080fd5b8063943e60aa1461029c578063a4f50b75146102bc57600080fd5b806354bfc7e51161011757806375f12b21116100fc57806375f12b211461021c5780637d73b231146102465780638da5cb5b1461027e57600080fd5b806354bfc7e5146101e7578063715018a61461020757600080fd5b806307da68f51461014957806307ddce4e1461016057806339998ddb146101805780634a9fe1c7146101a0575b600080fd5b34801561015557600080fd5b5061015e6103af565b005b34801561016c57600080fd5b5061015e61017b366004611516565b610444565b34801561018c57600080fd5b5061015e61019b366004611368565b6105c2565b3480156101ac57600080fd5b506101d47f000000000000000000000000000000000000000000000000000000000000000081565b6040519081526020015b60405180910390f35b3480156101f357600080fd5b5061015e610202366004611315565b610656565b34801561021357600080fd5b5061015e610733565b34801561022857600080fd5b506006546102369060ff1681565b60405190151581526020016101de565b34801561025257600080fd5b50600154610266906001600160a01b031681565b6040516001600160a01b0390911681526020016101de565b34801561028a57600080fd5b506000546001600160a01b0316610266565b3480156102a857600080fd5b50600354610266906001600160a01b031681565b3480156102c857600080fd5b506102666102d73660046114d9565b610747565b3480156102e857600080fd5b5061015e6102f7366004611568565b61082f565b34801561030857600080fd5b506101d46108ea565b34801561031d57600080fd5b506101d460055481565b34801561033357600080fd5b5061015e6103423660046114d9565b6109d9565b61015e6103553660046114d9565b6109ed565b34801561036657600080fd5b5061015e610375366004611315565b610bd9565b34801561038657600080fd5b50600254610266906001600160a01b031681565b3480156103a657600080fd5b5061015e610c66565b60065460ff161561042d5760405162461bcd60e51b815260206004820152603660248201527f54414c535542444f4d41494e5f5245474953545241523a20436f6e747261637460448201527f2069732063757272656e746c792073746f707065642e0000000000000000000060648201526084015b60405180910390fd5b610435610c7a565b6006805460ff19166001179055565b61044c610c7a565b60008280519060200120905060007f000000000000000000000000000000000000000000000000000000000000000082604051602001610496929190918252602082015260400190565b60408051808303601f190181529082905280516020909101206001546302571be360e01b8352600483018290529092506000916001600160a01b03909116906302571be39060240160206040518083038186803b1580156104f657600080fd5b505afa15801561050a573d6000803e3d6000fd5b505050506040513d601f19601f8201168201806040525081019061052e9190611332565b90506001600160a01b038116156105ad5760405162461bcd60e51b815260206004820152603460248201527f54414c535542444f4d41494e5f5245474953545241523a20535542444f4d414960448201527f4e5f414c52454144595f524547495354455245440000000000000000000000006064820152608401610424565b6105bb848685856000610cd4565b5050505050565b6105ca610c7a565b6003546002546040517f224199c20000000000000000000000000000000000000000000000000000000081526001600160a01b039283169263224199c29261061f92889288928892911690309060040161161e565b600060405180830381600087803b15801561063957600080fd5b505af115801561064d573d6000803e3d6000fd5b50505050505050565b61065e610c7a565b6001546040517f5b0fc9c30000000000000000000000000000000000000000000000000000000081527f000000000000000000000000000000000000000000000000000000000000000060048201526001600160a01b03838116602483015290911690635b0fc9c390604401600060405180830381600087803b1580156106e457600080fd5b505af11580156106f8573d6000803e3d6000fd5b50506040516001600160a01b03841692507f80876669255bbe670102b94465f3622bfeaf7c469f8d25da3f9492fda77be2189150600090a250565b61073b610c7a565b6107456000610efe565b565b80516020808301919091206001546040516000936001600160a01b03909216916302571be3916107a4917f000000000000000000000000000000000000000000000000000000000000000091869101918252602082015260400190565b604051602081830303815290604052805190602001206040518263ffffffff1660e01b81526004016107d891815260200190565b60206040518083038186803b1580156107f057600080fd5b505afa158015610804573d6000803e3d6000fd5b505050506040513d601f19601f820116820180604052508101906108289190611332565b9392505050565b610837610c7a565b6005548114156108af5760405162461bcd60e51b815260206004820152603760248201527f54414c535542444f4d41494e5f5245474953545241523a204e6577206665652060448201527f6d617463686573207468652063757272656e74206665650000000000000000006064820152608401610424565b60058190556040518181527fcb68a7bea0c5859aaa9685064dc77fd526c1541b8dadc621789c571efcf64eea9060200160405180910390a150565b6000600554600014156108fd5750600090565b6000600460009054906101000a90046001600160a01b03166001600160a01b031663feaf968c6040518163ffffffff1660e01b815260040160a06040518083038186803b15801561094d57600080fd5b505afa158015610961573d6000803e3d6000fd5b505050506040513d601f19601f820116820180604052508101906109859190611581565b505050915050600061099c826402540be400610f66565b905060006109b4600554678ac7230489e80000610f66565b90506109d16109cb82678ac7230489e80000610f66565b83610f72565b935050505090565b6109e1610c7a565b6109ea81610f7e565b50565b60065460ff1615610a665760405162461bcd60e51b815260206004820152603660248201527f54414c535542444f4d41494e5f5245474953545241523a20436f6e747261637460448201527f2069732063757272656e746c792073746f707065642e000000000000000000006064820152608401610424565b60008180519060200120905060007f000000000000000000000000000000000000000000000000000000000000000082604051602001610ab0929190918252602082015260400190565b60408051808303601f190181529082905280516020909101206001546302571be360e01b8352600483018290529092506000916001600160a01b03909116906302571be39060240160206040518083038186803b158015610b1057600080fd5b505afa158015610b24573d6000803e3d6000fd5b505050506040513d601f19601f82011682018060405250810190610b489190611332565b90506001600160a01b03811615610bc75760405162461bcd60e51b815260206004820152603460248201527f54414c535542444f4d41494e5f5245474953545241523a20535542444f4d414960448201527f4e5f414c52454144595f524547495354455245440000000000000000000000006064820152608401610424565b610bd33385858561117d565b50505050565b610be1610c7a565b6001600160a01b038116610c5d5760405162461bcd60e51b815260206004820152602660248201527f4f776e61626c653a206e6577206f776e657220697320746865207a65726f206160448201527f64647265737300000000000000000000000000000000000000000000000000006064820152608401610424565b6109ea81610efe565b610c6e610c7a565b6006805460ff19169055565b6000546001600160a01b031633146107455760405162461bcd60e51b815260206004820181905260248201527f4f776e61626c653a2063616c6c6572206973206e6f7420746865206f776e65726044820152606401610424565b6001546002546040516305ef2c7f60e41b81527f00000000000000000000000000000000000000000000000000000000000000006004820152602481018690523060448201526001600160a01b03918216606482015260006084820152911690635ef2c7f09060a401600060405180830381600087803b158015610d5757600080fd5b505af1158015610d6b573d6000803e3d6000fd5b50506002546040517fd5fa2b00000000000000000000000000000000000000000000000000000000008152600481018690526001600160a01b038981166024830152909116925063d5fa2b009150604401600060405180830381600087803b158015610dd657600080fd5b505af1158015610dea573d6000803e3d6000fd5b50506001546040517f06ab59230000000000000000000000000000000000000000000000000000000081527f00000000000000000000000000000000000000000000000000000000000000006004820152602481018790526001600160a01b03898116604483015290911692506306ab59239150606401602060405180830381600087803b158015610e7b57600080fd5b505af1158015610e8f573d6000803e3d6000fd5b505050506040513d601f19601f82011682018060405250810190610eb3919061134f565b50846001600160a01b03167fe5a2fb255dcde603207f25d174df1258a5334eefd2d4484e801e0bf66c200b038583604051610eef9291906116f0565b60405180910390a25050505050565b600080546001600160a01b038381167fffffffffffffffffffffffff0000000000000000000000000000000000000000831681178455604051919092169283917f8be0079c531659141344cd1fd0a4f28419497f9722a3daafe3b4186f6b6457e09190a35050565b6000610828828461178e565b6000610828828461176c565b60008180519060200120905060007f000000000000000000000000000000000000000000000000000000000000000082604051602001610fc8929190918252602082015260400190565b60408051808303601f190181529082905280516020909101206001546302571be360e01b8352600483018290529092506000916001600160a01b03909116906302571be39060240160206040518083038186803b15801561102857600080fd5b505afa15801561103c573d6000803e3d6000fd5b505050506040513d601f19601f820116820180604052508101906110609190611332565b90506001600160a01b0381166110de5760405162461bcd60e51b815260206004820152603060248201527f54414c535542444f4d41494e5f5245474953545241523a20535542444f4d414960448201527f4e5f4e4f545f52454749535445524544000000000000000000000000000000006064820152608401610424565b6001546040516305ef2c7f60e41b81527f00000000000000000000000000000000000000000000000000000000000000006004820152602481018590526000604482018190526064820181905260848201526001600160a01b0390911690635ef2c7f09060a401600060405180830381600087803b15801561115f57600080fd5b505af1158015611173573d6000803e3d6000fd5b5050505050505050565b60006111876108ea565b9050803410156111ff5760405162461bcd60e51b815260206004820152603360248201527f54414c535542444f4d41494e5f5245474953545241523a20416d6f756e74207060448201527f6173736564206973206e6f7420656e6f756768000000000000000000000000006064820152608401610424565b8034111561123f57336108fc61121583346117ad565b6040518115909202916000818181858888f1935050505015801561123d573d6000803e3d6000fd5b505b600080546040516001600160a01b039091169183156108fc02918491818181858888f19350505050158015611278573d6000803e3d6000fd5b506105bb8585858585610cd4565b600082601f83011261129757600080fd5b813567ffffffffffffffff8111156112b1576112b16117da565b6112c4601f8201601f191660200161173b565b8181528460208386010111156112d957600080fd5b816020850160208301376000918101602001919091529392505050565b805169ffffffffffffffffffff8116811461131057600080fd5b919050565b60006020828403121561132757600080fd5b8135610828816117f0565b60006020828403121561134457600080fd5b8151610828816117f0565b60006020828403121561136157600080fd5b5051919050565b60008060006060848603121561137d57600080fd5b67ffffffffffffffff808535111561139457600080fd5b6113a18686358701611286565b93506020850135818111156113b557600080fd5b8501601f810187136113c657600080fd5b8035828111156113d8576113d86117da565b6113e760208260051b0161173b565b80828252602082019150602084018a60208560051b870101111561140a57600080fd5b60005b848110156114a757868235111561142357600080fd5b813586016040818e03601f1901121561143b57600080fd5b611443611712565b60208201358981111561145557600080fd5b6114648f602083860101611286565b82525060408201358981111561147957600080fd5b6114888f602083860101611286565b602083810191909152918752509485019492909201915060010161140d565b5050809650505050506040850135818111156114c257600080fd5b6114ce87828801611286565b925050509250925092565b6000602082840312156114eb57600080fd5b813567ffffffffffffffff81111561150257600080fd5b61150e84828501611286565b949350505050565b6000806040838503121561152957600080fd5b823567ffffffffffffffff81111561154057600080fd5b61154c85828601611286565b925050602083013561155d816117f0565b809150509250929050565b60006020828403121561157a57600080fd5b5035919050565b600080600080600060a0868803121561159957600080fd5b6115a2866112f6565b94506020860151935060408601519250606086015191506115c5608087016112f6565b90509295509295909350565b6000815180845260005b818110156115f7576020818501810151868301820152016115db565b81811115611609576000602083870101525b50601f01601f19169290920160200192915050565b60a08152600061163160a08301886115d1565b6020838203818501528188518084528284019150828160051b850101838b0160005b838110156116a757601f19878403018552815160408151818652611679828701826115d1565b9150508782015191508481038886015261169381836115d1565b968801969450505090850190600101611653565b505086810360408801526116bb818b6115d1565b955050505050506116d760608301856001600160a01b03169052565b6001600160a01b03831660808301529695505050505050565b60408152600061170360408301856115d1565b90508260208301529392505050565b6040805190810167ffffffffffffffff81118282101715611735576117356117da565b60405290565b604051601f8201601f1916810167ffffffffffffffff81118282101715611764576117646117da565b604052919050565b60008261178957634e487b7160e01b600052601260045260246000fd5b500490565b60008160001904831182151516156117a8576117a86117c4565b500290565b6000828210156117bf576117bf6117c4565b500390565b634e487b7160e01b600052601160045260246000fd5b634e487b7160e01b600052604160045260246000fd5b6001600160a01b03811681146109ea57600080fdfea2646970667358221220b7207ef308502f9b4f93595a1ead89a498b2b5d32f1ae93e7e93ce2a75c6436864736f6c63430008070033",
  "linkReferences": {},
  "deployedLinkReferences": {}
}