{
  "_format": "hh-sol-artifact-1",
  "contractName": "TalSubdomainRegistrar",
  "sourceName": "contracts/subdomain-registrar/TalSubdomainRegistrar.sol",
  "abi": [
    {
      "inputs": [
        {
          "internalType": "contract ENS",
          "name": "ens",
          "type": "address"
        },
        {
          "internalType": "contract PublicResolver",
          "name": "resolver",
          "type": "address"
        },
        {
          "internalType": "contract DNSRegistrar",
          "name": "registrar",
          "type": "address"
        },
        {
          "internalType": "contract AggregatorV3Interface",
          "name": "priceFeedAddress",
          "type": "address"
        },
        {
          "internalType": "bytes32",
          "name": "node",
          "type": "bytes32"
        },
        {
          "internalType": "address",
          "name": "contractOwner",
          "type": "address"
        },
        {
          "internalType": "uint256",
          "name": "initialSubdomainFee",
          "type": "uint256"
        }
      ],
      "stateMutability": "nonpayable",
      "type": "constructor"
    },
    {
      "anonymous": false,
      "inputs": [
        {
          "indexed": true,
          "internalType": "address",
          "name": "owner",
          "type": "address"
        }
      ],
      "name": "DomainOwnershipTransferred",
      "type": "event"
    },
    {
      "anonymous": false,
      "inputs": [
        {
          "indexed": true,
          "internalType": "address",
          "name": "previousOwner",
          "type": "address"
        },
        {
          "indexed": true,
          "internalType": "address",
          "name": "newOwner",
          "type": "address"
        }
      ],
      "name": "OwnershipTransferred",
      "type": "event"
    },
    {
      "anonymous": false,
      "inputs": [
        {
          "indexed": false,
          "internalType": "uint256",
          "name": "newFee",
          "type": "uint256"
        }
      ],
      "name": "SubDomainFeeChanged",
      "type": "event"
    },
    {
      "anonymous": false,
      "inputs": [
        {
          "indexed": false,
          "internalType": "string",
          "name": "subDomainLabel",
          "type": "string"
        },
        {
          "indexed": false,
          "internalType": "uint256",
          "name": "price",
          "type": "uint256"
        },
        {
          "indexed": true,
          "internalType": "address",
          "name": "owner",
          "type": "address"
        }
      ],
      "name": "SubDomainRegistered",
      "type": "event"
    },
    {
      "inputs": [],
      "name": "ROOT_NODE",
      "outputs": [
        {
          "internalType": "bytes32",
          "name": "",
          "type": "bytes32"
        }
      ],
      "stateMutability": "view",
      "type": "function"
    },
    {
      "inputs": [
        {
          "internalType": "bytes",
          "name": "name",
          "type": "bytes"
        },
        {
          "components": [
            {
              "internalType": "bytes",
              "name": "rrset",
              "type": "bytes"
            },
            {
              "internalType": "bytes",
              "name": "sig",
              "type": "bytes"
            }
          ],
          "internalType": "struct DNSSEC.RRSetWithSignature[]",
          "name": "input",
          "type": "tuple[]"
        },
        {
          "internalType": "bytes",
          "name": "proof",
          "type": "bytes"
        }
      ],
      "name": "configureDnsOwnership",
      "outputs": [],
      "stateMutability": "nonpayable",
      "type": "function"
    },
    {
      "inputs": [],
      "name": "dnsRegistrar",
      "outputs": [
        {
          "internalType": "contract DNSRegistrar",
          "name": "",
          "type": "address"
        }
      ],
      "stateMutability": "view",
      "type": "function"
    },
    {
      "inputs": [],
      "name": "ensRegistry",
      "outputs": [
        {
          "internalType": "contract ENS",
          "name": "",
          "type": "address"
        }
      ],
      "stateMutability": "view",
      "type": "function"
    },
    {
      "inputs": [
        {
          "internalType": "string",
          "name": "subdomainLabel",
          "type": "string"
        },
        {
          "internalType": "address",
          "name": "subdomainNewOwner",
          "type": "address"
        }
      ],
      "name": "freeRegister",
      "outputs": [],
      "stateMutability": "nonpayable",
      "type": "function"
    },
    {
      "inputs": [],
      "name": "open",
      "outputs": [],
      "stateMutability": "nonpayable",
      "type": "function"
    },
    {
      "inputs": [],
      "name": "owner",
      "outputs": [
        {
          "internalType": "address",
          "name": "",
          "type": "address"
        }
      ],
      "stateMutability": "view",
      "type": "function"
    },
    {
      "inputs": [],
      "name": "publicResolver",
      "outputs": [
        {
          "internalType": "contract PublicResolver",
          "name": "",
          "type": "address"
        }
      ],
      "stateMutability": "view",
      "type": "function"
    },
    {
      "inputs": [
        {
          "internalType": "string",
          "name": "subdomainLabel",
          "type": "string"
        }
      ],
      "name": "register",
      "outputs": [],
      "stateMutability": "payable",
      "type": "function"
    },
    {
      "inputs": [],
      "name": "renounceOwnership",
      "outputs": [],
      "stateMutability": "nonpayable",
      "type": "function"
    },
    {
      "inputs": [
        {
          "internalType": "string",
          "name": "subdomainLabel",
          "type": "string"
        }
      ],
      "name": "revokeSubdomain",
      "outputs": [],
      "stateMutability": "nonpayable",
      "type": "function"
    },
    {
      "inputs": [
        {
          "internalType": "uint256",
          "name": "newSubdomainFee",
          "type": "uint256"
        }
      ],
      "name": "setSubdomainFee",
      "outputs": [],
      "stateMutability": "nonpayable",
      "type": "function"
    },
    {
      "inputs": [],
      "name": "stop",
      "outputs": [],
      "stateMutability": "nonpayable",
      "type": "function"
    },
    {
      "inputs": [],
      "name": "stopped",
      "outputs": [
        {
          "internalType": "bool",
          "name": "",
          "type": "bool"
        }
      ],
      "stateMutability": "view",
      "type": "function"
    },
    {
      "inputs": [
        {
          "internalType": "string",
          "name": "subdomainLabel",
          "type": "string"
        }
      ],
      "name": "subDomainOwner",
      "outputs": [
        {
          "internalType": "address",
          "name": "subDomainOwnerAddress",
          "type": "address"
        }
      ],
      "stateMutability": "view",
      "type": "function"
    },
    {
      "inputs": [],
      "name": "subdomainFee",
      "outputs": [
        {
          "internalType": "uint256",
          "name": "",
          "type": "uint256"
        }
      ],
      "stateMutability": "view",
      "type": "function"
    },
    {
      "inputs": [
        {
          "internalType": "address",
          "name": "newDomainOwner",
          "type": "address"
        }
      ],
      "name": "transferDomainOwnership",
      "outputs": [],
      "stateMutability": "nonpayable",
      "type": "function"
    },
    {
      "inputs": [
        {
          "internalType": "address",
          "name": "newOwner",
          "type": "address"
        }
      ],
      "name": "transferOwnership",
      "outputs": [],
      "stateMutability": "nonpayable",
      "type": "function"
    }
  ],
  "bytecode": "0x60a06040526006805460ff191690553480156200001b57600080fd5b5060405162001aee38038062001aee8339810160408190526200003e91620001e6565b6200004933620000b5565b600180546001600160a01b03808a166001600160a01b0319928316179092556002805489841690831617905560038054888416908316179055608085905260058390556004805492871692909116919091179055620000a88262000105565b505050505050506200028f565b600080546001600160a01b038381166001600160a01b0319831681178455604051919092169283917f8be0079c531659141344cd1fd0a4f28419497f9722a3daafe3b4186f6b6457e09190a35050565b6200010f62000188565b6001600160a01b0381166200017a5760405162461bcd60e51b815260206004820152602660248201527f4f776e61626c653a206e6577206f776e657220697320746865207a65726f206160448201526564647265737360d01b60648201526084015b60405180910390fd5b6200018581620000b5565b50565b6000546001600160a01b03163314620001e45760405162461bcd60e51b815260206004820181905260248201527f4f776e61626c653a2063616c6c6572206973206e6f7420746865206f776e6572604482015260640162000171565b565b600080600080600080600060e0888a0312156200020257600080fd5b87516200020f8162000279565b6020890151909750620002228162000279565b6040890151909650620002358162000279565b6060890151909550620002488162000279565b608089015160a08a01519195509350620002628162000279565b8092505060c0880151905092959891949750929550565b6001600160a01b03811681146200018557600080fd5b60805161180b620002e3600039600081816101970152818161042c01528181610659015281816107430152818161095701528181610bca01528181610cf801528181610e570152610fb9015261180b6000f3fe6080604052600436106101295760003560e01c8063943e60aa116100a5578063f2800a1411610074578063f2fde38b11610059578063f2fde38b1461032a578063f82561211461034a578063fcfff16f1461036a57600080fd5b8063f2800a14146102f7578063f2c298be1461031757600080fd5b8063943e60aa14610281578063a4f50b75146102a1578063ab517d13146102c1578063e37ce2b1146102e157600080fd5b806354bfc7e5116100fc57806375f12b21116100e157806375f12b21146102015780637d73b2311461022b5780638da5cb5b1461026357600080fd5b806354bfc7e5146101cc578063715018a6146101ec57600080fd5b806307da68f51461012e57806307ddce4e1461014557806339998ddb146101655780634a9fe1c714610185575b600080fd5b34801561013a57600080fd5b5061014361037f565b005b34801561015157600080fd5b506101436101603660046114e6565b610414565b34801561017157600080fd5b50610143610180366004611338565b610592565b34801561019157600080fd5b506101b97f000000000000000000000000000000000000000000000000000000000000000081565b6040519081526020015b60405180910390f35b3480156101d857600080fd5b506101436101e73660046112e5565b610626565b3480156101f857600080fd5b50610143610703565b34801561020d57600080fd5b5060065461021b9060ff1681565b60405190151581526020016101c3565b34801561023757600080fd5b5060015461024b906001600160a01b031681565b6040516001600160a01b0390911681526020016101c3565b34801561026f57600080fd5b506000546001600160a01b031661024b565b34801561028d57600080fd5b5060035461024b906001600160a01b031681565b3480156102ad57600080fd5b5061024b6102bc3660046114a9565b610717565b3480156102cd57600080fd5b506101436102dc366004611538565b6107ff565b3480156102ed57600080fd5b506101b960055481565b34801561030357600080fd5b506101436103123660046114a9565b6108ba565b6101436103253660046114a9565b6108ce565b34801561033657600080fd5b506101436103453660046112e5565b610aba565b34801561035657600080fd5b5060025461024b906001600160a01b031681565b34801561037657600080fd5b50610143610b47565b60065460ff16156103fd5760405162461bcd60e51b815260206004820152603660248201527f54414c535542444f4d41494e5f5245474953545241523a20436f6e747261637460448201527f2069732063757272656e746c792073746f707065642e0000000000000000000060648201526084015b60405180910390fd5b610405610b5b565b6006805460ff19166001179055565b61041c610b5b565b60008280519060200120905060007f000000000000000000000000000000000000000000000000000000000000000082604051602001610466929190918252602082015260400190565b60408051808303601f190181529082905280516020909101206001546302571be360e01b8352600483018290529092506000916001600160a01b03909116906302571be39060240160206040518083038186803b1580156104c657600080fd5b505afa1580156104da573d6000803e3d6000fd5b505050506040513d601f19601f820116820180604052508101906104fe9190611302565b90506001600160a01b0381161561057d5760405162461bcd60e51b815260206004820152603460248201527f54414c535542444f4d41494e5f5245474953545241523a20535542444f4d414960448201527f4e5f414c52454144595f5245474953544552454400000000000000000000000060648201526084016103f4565b61058b848685856000610bb5565b5050505050565b61059a610b5b565b6003546002546040517f224199c20000000000000000000000000000000000000000000000000000000081526001600160a01b039283169263224199c2926105ef9288928892889291169030906004016115ee565b600060405180830381600087803b15801561060957600080fd5b505af115801561061d573d6000803e3d6000fd5b50505050505050565b61062e610b5b565b6001546040517f5b0fc9c30000000000000000000000000000000000000000000000000000000081527f000000000000000000000000000000000000000000000000000000000000000060048201526001600160a01b03838116602483015290911690635b0fc9c390604401600060405180830381600087803b1580156106b457600080fd5b505af11580156106c8573d6000803e3d6000fd5b50506040516001600160a01b03841692507f80876669255bbe670102b94465f3622bfeaf7c469f8d25da3f9492fda77be2189150600090a250565b61070b610b5b565b6107156000610ddf565b565b80516020808301919091206001546040516000936001600160a01b03909216916302571be391610774917f000000000000000000000000000000000000000000000000000000000000000091869101918252602082015260400190565b604051602081830303815290604052805190602001206040518263ffffffff1660e01b81526004016107a891815260200190565b60206040518083038186803b1580156107c057600080fd5b505afa1580156107d4573d6000803e3d6000fd5b505050506040513d601f19601f820116820180604052508101906107f89190611302565b9392505050565b610807610b5b565b60055481141561087f5760405162461bcd60e51b815260206004820152603760248201527f54414c535542444f4d41494e5f5245474953545241523a204e6577206665652060448201527f6d617463686573207468652063757272656e742066656500000000000000000060648201526084016103f4565b60058190556040518181527fcb68a7bea0c5859aaa9685064dc77fd526c1541b8dadc621789c571efcf64eea9060200160405180910390a150565b6108c2610b5b565b6108cb81610e47565b50565b60065460ff16156109475760405162461bcd60e51b815260206004820152603660248201527f54414c535542444f4d41494e5f5245474953545241523a20436f6e747261637460448201527f2069732063757272656e746c792073746f707065642e0000000000000000000060648201526084016103f4565b60008180519060200120905060007f000000000000000000000000000000000000000000000000000000000000000082604051602001610991929190918252602082015260400190565b60408051808303601f190181529082905280516020909101206001546302571be360e01b8352600483018290529092506000916001600160a01b03909116906302571be39060240160206040518083038186803b1580156109f157600080fd5b505afa158015610a05573d6000803e3d6000fd5b505050506040513d601f19601f82011682018060405250810190610a299190611302565b90506001600160a01b03811615610aa85760405162461bcd60e51b815260206004820152603460248201527f54414c535542444f4d41494e5f5245474953545241523a20535542444f4d414960448201527f4e5f414c52454144595f5245474953544552454400000000000000000000000060648201526084016103f4565b610ab433858585611046565b50505050565b610ac2610b5b565b6001600160a01b038116610b3e5760405162461bcd60e51b815260206004820152602660248201527f4f776e61626c653a206e6577206f776e657220697320746865207a65726f206160448201527f646472657373000000000000000000000000000000000000000000000000000060648201526084016103f4565b6108cb81610ddf565b610b4f610b5b565b6006805460ff19169055565b6000546001600160a01b031633146107155760405162461bcd60e51b815260206004820181905260248201527f4f776e61626c653a2063616c6c6572206973206e6f7420746865206f776e657260448201526064016103f4565b6001546002546040516305ef2c7f60e41b81527f00000000000000000000000000000000000000000000000000000000000000006004820152602481018690523060448201526001600160a01b03918216606482015260006084820152911690635ef2c7f09060a401600060405180830381600087803b158015610c3857600080fd5b505af1158015610c4c573d6000803e3d6000fd5b50506002546040517fd5fa2b00000000000000000000000000000000000000000000000000000000008152600481018690526001600160a01b038981166024830152909116925063d5fa2b009150604401600060405180830381600087803b158015610cb757600080fd5b505af1158015610ccb573d6000803e3d6000fd5b50506001546040517f06ab59230000000000000000000000000000000000000000000000000000000081527f00000000000000000000000000000000000000000000000000000000000000006004820152602481018790526001600160a01b03898116604483015290911692506306ab59239150606401602060405180830381600087803b158015610d5c57600080fd5b505af1158015610d70573d6000803e3d6000fd5b505050506040513d601f19601f82011682018060405250810190610d94919061131f565b50846001600160a01b03167fe5a2fb255dcde603207f25d174df1258a5334eefd2d4484e801e0bf66c200b038583604051610dd09291906116c0565b60405180910390a25050505050565b600080546001600160a01b038381167fffffffffffffffffffffffff0000000000000000000000000000000000000000831681178455604051919092169283917f8be0079c531659141344cd1fd0a4f28419497f9722a3daafe3b4186f6b6457e09190a35050565b60008180519060200120905060007f000000000000000000000000000000000000000000000000000000000000000082604051602001610e91929190918252602082015260400190565b60408051808303601f190181529082905280516020909101206001546302571be360e01b8352600483018290529092506000916001600160a01b03909116906302571be39060240160206040518083038186803b158015610ef157600080fd5b505afa158015610f05573d6000803e3d6000fd5b505050506040513d601f19601f82011682018060405250810190610f299190611302565b90506001600160a01b038116610fa75760405162461bcd60e51b815260206004820152603060248201527f54414c535542444f4d41494e5f5245474953545241523a20535542444f4d414960448201527f4e5f4e4f545f524547495354455245440000000000000000000000000000000060648201526084016103f4565b6001546040516305ef2c7f60e41b81527f00000000000000000000000000000000000000000000000000000000000000006004820152602481018590526000604482018190526064820181905260848201526001600160a01b0390911690635ef2c7f09060a401600060405180830381600087803b15801561102857600080fd5b505af115801561103c573d6000803e3d6000fd5b5050505050505050565b600061105061114f565b9050803410156110c85760405162461bcd60e51b815260206004820152603360248201527f54414c535542444f4d41494e5f5245474953545241523a20416d6f756e74207060448201527f6173736564206973206e6f7420656e6f7567680000000000000000000000000060648201526084016103f4565b8034111561110857336108fc6110de833461177d565b6040518115909202916000818181858888f19350505050158015611106573d6000803e3d6000fd5b505b600080546040516001600160a01b039091169183156108fc02918491818181858888f19350505050158015611141573d6000803e3d6000fd5b5061058b8585858585610bb5565b6000600554600014156111625750600090565b6000600460009054906101000a90046001600160a01b03166001600160a01b031663feaf968c6040518163ffffffff1660e01b815260040160a06040518083038186803b1580156111b257600080fd5b505afa1580156111c6573d6000803e3d6000fd5b505050506040513d601f19601f820116820180604052508101906111ea9190611551565b5050509150506000611201826402540be40061123e565b90506000611219600554678ac7230489e8000061123e565b905061123661123082678ac7230489e8000061123e565b8361124a565b935050505090565b60006107f8828461175e565b60006107f8828461173c565b600082601f83011261126757600080fd5b813567ffffffffffffffff811115611281576112816117aa565b611294601f8201601f191660200161170b565b8181528460208386010111156112a957600080fd5b816020850160208301376000918101602001919091529392505050565b805169ffffffffffffffffffff811681146112e057600080fd5b919050565b6000602082840312156112f757600080fd5b81356107f8816117c0565b60006020828403121561131457600080fd5b81516107f8816117c0565b60006020828403121561133157600080fd5b5051919050565b60008060006060848603121561134d57600080fd5b67ffffffffffffffff808535111561136457600080fd5b6113718686358701611256565b935060208501358181111561138557600080fd5b8501601f8101871361139657600080fd5b8035828111156113a8576113a86117aa565b6113b760208260051b0161170b565b80828252602082019150602084018a60208560051b87010111156113da57600080fd5b60005b848110156114775786823511156113f357600080fd5b813586016040818e03601f1901121561140b57600080fd5b6114136116e2565b60208201358981111561142557600080fd5b6114348f602083860101611256565b82525060408201358981111561144957600080fd5b6114588f602083860101611256565b60208381019190915291875250948501949290920191506001016113dd565b50508096505050505060408501358181111561149257600080fd5b61149e87828801611256565b925050509250925092565b6000602082840312156114bb57600080fd5b813567ffffffffffffffff8111156114d257600080fd5b6114de84828501611256565b949350505050565b600080604083850312156114f957600080fd5b823567ffffffffffffffff81111561151057600080fd5b61151c85828601611256565b925050602083013561152d816117c0565b809150509250929050565b60006020828403121561154a57600080fd5b5035919050565b600080600080600060a0868803121561156957600080fd5b611572866112c6565b9450602086015193506040860151925060608601519150611595608087016112c6565b90509295509295909350565b6000815180845260005b818110156115c7576020818501810151868301820152016115ab565b818111156115d9576000602083870101525b50601f01601f19169290920160200192915050565b60a08152600061160160a08301886115a1565b6020838203818501528188518084528284019150828160051b850101838b0160005b8381101561167757601f19878403018552815160408151818652611649828701826115a1565b9150508782015191508481038886015261166381836115a1565b968801969450505090850190600101611623565b5050868103604088015261168b818b6115a1565b955050505050506116a760608301856001600160a01b03169052565b6001600160a01b03831660808301529695505050505050565b6040815260006116d360408301856115a1565b90508260208301529392505050565b6040805190810167ffffffffffffffff81118282101715611705576117056117aa565b60405290565b604051601f8201601f1916810167ffffffffffffffff81118282101715611734576117346117aa565b604052919050565b60008261175957634e487b7160e01b600052601260045260246000fd5b500490565b600081600019048311821515161561177857611778611794565b500290565b60008282101561178f5761178f611794565b500390565b634e487b7160e01b600052601160045260246000fd5b634e487b7160e01b600052604160045260246000fd5b6001600160a01b03811681146108cb57600080fdfea2646970667358221220745a4277ecefa99d99da7f3e5698c997a596e98e67194c3d5470b9b7ac15d12764736f6c63430008070033",
  "linkReferences": {},
  "deployedLinkReferences": {}
}